:020000040000FA
:10000000C8050020750100008F010000690D000087
:1000100000000000000000000000000000000000E0
:10002000000000000000000000000000930100003C
:10003000000000000000000095010000DB0F000040
:10004000990D0000A10D0000A90D0000B10D0000E8
:100050009901000099010000BD120000C5120000C6
:100060009901000099010000BD0F000099010000F6
:10007000790D0000990100006D120000751200005A
:100080007D120000990100008D1200009512000001
:100090009D120000890D0000B513000099010000B9
:1000A0003B06000099010000A5130000AD130000FD
:1000B000810D000099010000110B0000790A000079
:1000C00000F002F800F046F80CA030C808382418F8
:1000D0002D18671EA246AB4654465D46AC4201D180
:1000E00000F038F87E460F3EB6460FCC012633426C
:1000F00000D0FB1A3343A246AB461847041B00004E
:10010000241B0000103A02D378C878C1FAD85207ED
:1001100001D330C830C101D504680C6070470000BD
:100120000023002400250026103A01D378C1FBD813
:10013000520700D330C100D50B60704710B5642959
:1001400002D100F08DF810BD002010BD1FB51FBDFD
:1001500010B510BD00F03FFA1146FFF7F7FF01F0B0
:1001600021FB00F057FA03B4FFF7F2FF03BC00F0E5
:100170005DFA00000C480D4A002100A1814200D91F
:1001800002440B4802600B4880470B480047FEE7DB
:10019000FEE7FEE7FEE7FEE7FEE700000748084946
:1001A000084A094B704700000000002000000000D2
:1001B00008ED00E065120000C1000000C801002049
:1001C000C8050020C8030020C80300200FB41CB5D8
:1001D000074B06AA7B4469460090059800F0CFF9CA
:1001E0000020694600F0DEF91CBC08BC04B01847CA
:1001F000CD030000F8B50E460446002020622046DC
:10020000E1688847002829D0252802D06268A168C3
:1002100020E0E16820460027884705001ED02846D8
:100220004138192802D80127FF02203532462046DE
:1002300027602946FFF782FF002808D0012804D054
:10024000F61DF608F6000836D9E7361DD7E76268CE
:100250002846A1689047206A401CCFE7206AF8BD75
:10026000F7B5002575291068009914A611D0C0466D
:10027000C046002802DA404211A608E00099096849
:100280008A0701D50FA602E0490704D50EA601256D
:1002900001E0C046C046009F0024243704E000F07F
:1002A00086F930313955641C0028F8D12B46324686
:1002B0002146009800F005F9FEBD00000000000096
:1002C0002D0000002B0000002000000030B5441C71
:1002D00003E00178401C00290DD08107F9D10B4BB8
:1002E000DD0104C8D11A91432940FAD0001B0A0647
:1002F00003D0C01E30BD001B30BD0A0401D0801EDB
:1003000030BD0902FCD0401E30BD000001010101DA
:1003100001E004C0091F0429FBD28B0701D502802C
:10032000801CC90700D00270704700290BD0C3079A
:1003300002D00270401C491E022904D3830702D553
:100340000280801C891EE3E70022EEE70022DFE73F
:10035000002203098B422CD3030A8B4211D30023C2
:100360009C464EE003460B433CD4002243088B429C
:1003700031D303098B421CD3030A8B4201D3944629
:100380003FE0C3098B4201D3CB01C01A524183091C
:100390008B4201D38B01C01A524143098B4201D3D6
:1003A0004B01C01A524103098B4201D30B01C01A01
:1003B0005241C3088B4201D3CB00C01A524183087B
:1003C0008B4201D38B00C01A524143088B4201D3A8
:1003D0004B00C01A5241411A00D201465241104608
:1003E00070475DE0CA0F00D04942031000D340427D
:1003F00053409C46002203098B422DD3030A8B42B3
:1004000012D38901FC2212BA030A8B420CD3890150
:1004100092118B4208D3890192118B4204D3890136
:100420003AD0921100E08909C3098B4201D3CB0174
:10043000C01A524183098B4201D38B01C01A524129
:1004400043098B4201D34B01C01A524103098B422D
:1004500001D30B01C01A5241C3088B4201D3CB0018
:10046000C01A524183088B4201D38B00C01A5241FB
:10047000D9D243088B4201D34B00C01A5241411AD2
:1004800000D201465241104663465B1001D3404200
:10049000002B00D54942704763465B1000D34042B1
:1004A00001B50549002802DC491C084000E0084667
:1004B000C046C04602BD00BFFFFFFF7F70477047C8
:1004C0007047FFB504460D4681B024300090216886
:1004D000880604D51022E0699143216000E00120E4
:1004E000A84201DD471B00E000270498A1697A19A2
:1004F0001018081AA0612078C00602D42046C04611
:10050000C046002608E003986268A168805D9047B5
:10051000206A401C761C206204988642F3DB207817
:10052000C0060AD52046C046C04606E06268A168FB
:1005300030209047206A401C206238467F1E0028E9
:10054000F4DC07E000986268A168405D9047206A8B
:10055000401C206228466D1E0028F3DC2046C04661
:10056000C0462078000602D5022005B0F0BD01206B
:10057000FBE7000001694A1C02610878704700B57A
:100580008FB00291002105910549019379440391AF
:10059000114604906846FFF72DFE0FB000BD000025
:1005A000E5FFFFFF0A681070521C0A6070470146A1
:1005B0008008081A02091018020A1018020C1018F4
:1005C000C008820012185200891A01E0401C0A3942
:1005D0000A29FBD27047754600F024F8AE460500A4
:1005E00069465346C008C000854618B020B5FFF7DD
:1005F000D5FD60BCB64600260027C0C5C0C5C0C535
:10060000C0C5C0C5C0C5C0C5C0C5403D490849003A
:100610008D46704710B50446C046C0462046FFF7D9
:10062000A2FD10BD004870471800002001491820A5
:10063000ABBEFEE726000200704780B500F07EF8F2
:1006400080BD00000820C0430A4908607047C046CA
:100650000220C043074908607047C0460120C043DC
:10066000044908607047C0460420C043014908603F
:100670007047C0466424004010B5447801220F49F9
:100680000B88012C02D0754C234001E094032343D6
:100690000B8084780B88012C02D0714C234001E040
:1006A000540323430B80C3780888012B02D06D4A82
:1006B000104001E012031043088010BD08240040E0
:1006C000B0B502460420002A18D0002916D0002018
:1006D00010605A4A93885C4C1C4094800B881488A4
:1006E000F025AC431B071B0E1B1913800979938857
:1006F000034C1C40C907090D09199180B0BDC046C3
:10070000FFF700004D48018801220A43028070472C
:100710000120800349490A8802430A807047C04685
:10072000002806D004490988484A0A40028000206F
:10073000704704207047C0465024004010B50F4C4D
:100740002078400701D5FFF78FFF2078800701D57B
:10075000FFF77EFF2078C00701D0FFF77FFF2078EA
:10076000000701D5FFF76EFF05480178491C0170AD
:10077000C80702D00348FFF7D3FF10BD6024004034
:10078000C0000020BE00002070B5002854D0828830
:100790002A490B880C24A3439207120FD2180A800F
:1007A00002890B88264C1C409207D20C12190A8031
:1007B00082890B88234C1C409207920D12190A80E3
:1007C000027C0B88204C1C40D207520D12190A8063
:1007D000828A1E4B1A401E4C641C1E4D2E882640D9
:1007E000B2182A80028B1A40AB8823409A18AA803C
:1007F000828B1F231A408C889C43A2188A80008C0D
:10080000154A20328B88134003221202E032400145
:100810001040C01888800888104A104008808888D6
:100820001040888088880E4A02408A8088880D4A55
:1008300002408A80002070BD042070BD0424004066
:10084000FFE70000FFFC0000FFFB0000FF0F0000BF
:10085000FFEFFFFF58240040FFFBFFFFFFBF00003A
:10086000FFDF0000FFEF0000BFB5112000F0C6FC65
:1008700002240121204600F0E3FB204600F0D4FCD6
:100880000025284600F0A6FC284600F0CDFC2046B6
:10089000294600F0D5FB032000F070FE0395029579
:1008A000019501A800F09EFBBFBD000080B5044883
:1008B000016801220A430260022000F03DFE80BD73
:1008C0000024004002280AD001280FD0002815D1AA
:1008D0000B480268204B1340591801600CE008488F
:1008E000026C1D4B13405918016405E00448026A6C
:1008F000194B1340591801620020704701207047BE
:10090000000C00400849002806D0022803D0012826
:1009100008D1203100E0403108680122904308608E
:100920000020704701207047140C0040094A00283D
:1009300006D0022803D0012809D1203200E040323D
:100940001068054B034058181060002070470120C4
:100950007047C046040C00400000FFFF45490028D6
:1009600006D0022803D0012809D1203100E040310F
:10097000012080020A6882430A600020704701203B
:100980007047C0463B49002806D0022803D0012802
:1009900009D1203100E04031012080020A68024381
:1009A0000A600020704701207047C046B0B5314A48
:1009B000002806D0022803D0012835D1203200E0DB
:1009C0004032086801235C021568A543C007800D0A
:1009D0002818106048681B0214689C43C007C00DAB
:1009E00020181060886813687024A3434007400EE5
:1009F00018181060C86813680824A343C007000FC4
:100A000018181060086913680424A343C007400F36
:100A1000181810604869116802239943C007800FB5
:100A2000081810600020B0BD0120B0BD1149002899
:100A300006D0022803D0012808D1203100E040313F
:100A40000868012202430A600020704701207047B5
:100A50000849002806D0022803D0012808D12031F7
:100A600000E0403108680122904308600020704790
:100A7000012070470C0C004080B5C046C04680BDC8
:100A800080B5C046C04680BDB0B500280BD41F233A
:100A9000034001249C401A4B1C60032304469C43E2
:100AA000184BE31806E00F230340083B0324A3433D
:100AB000124C1B198407E40E8907090EA140FF257B
:100AC000A5401C68AC430C431C60012A08D10028D7
:100AD00012D41F210840012181400C480160B0BDA3
:100AE000002809D41F2108400121814006480160E7
:100AF000BFF34F8FBFF36F8FB0BDC0461CED00E05A
:100B000080E200E000E400E080E100E000E100E0DD
:100B100080B5C046C046C046C04680BDF0B58BB06B
:100B20000446FF250A9502A82021FFF70FFC601E4E
:100B3000C1B2042007292CD8AB22CA40D10728D043
:100B400000201549202805D00A58624302AB1A50EC
:100B5000001DF7E700201149504A514B044600950B
:100B6000082C16D00A950194A70002AEF659CF19A9
:100B70003D68B54208D00A9D6C1E0A94002D07D02E
:100B8000CA62CB623E60F3E7019C641C009DE7E70C
:100B900007200BB0F0BDC046E01B00000000024083
:100BA00078B5FF230093C10B01D0042130E00093FE
:100BB000394A1168C90605D500994C1E00940029D0
:100BC000F7D124E0354CD460354DD56035491161FD
:100BD0000093116803260E40022E0DD000994E1E80
:100BE0000096002913D0D460D560116802260E4308
:100BF00001218E431660ECE700210170009310681C
:100C0000C00607D50098431E00930028F7D109219C
:100C1000084678BDD460D5601161F9E7F8B5FF23C7
:100C20000093C20B01D00420F8BD00931A4A146847
:100C3000E40605D5009C651E0095002CF7D123E045
:100C40000093164D164C166803273740012F0DD020
:100C5000009E771E0097002E16D0D560D4601668CF
:100C6000012737430226B7431760ECE7D560D4600D
:100C70000C4E1661018000931068C00606D50098DE
:100C8000411E00910028F7D10920F8BDD560D4603D
:100C900000201061F8BDC046200002405A5A0000F2
:100CA000A5A50000FFFF00000268CA400120104017
:100CB0007047000080B5024A8018FFF7F5FF80BD3D
:100CC000040D0240FEB515460C4601901749471821
:100CD00038460C300026214632460296144B98477F
:100CE000A0000199081816494650384608302A785D
:100CF00021460F4EB0472A7938462146B04738463C
:100D00001C302A7A2146B047384620302A7B2146BB
:100D1000B047384624302A7C2146B0472C372A7DFC
:100D200038462146B0470298FEBDC046000D02403D
:100D3000C50F00008900401801494250002070474B
:100D4000000C024080B5E24A8018012200F03AF916
:100D5000002080BD80B5034BC01800F033F900209F
:100D600080BDC046080D024081B000200090009870
:100D70000028FCD001B0704780B5C046C04680BD99
:100D800080B5C046C04680BD80B500F03DF880BD4E
:100D900080B5C046C04680BD80B5C046C04680BD57
:100DA00080B5C046C04680BD80B5C046C04680BD47
:100DB00080B5C046C04680BD01218140024802681E
:100DC0008A4302607047C0460C10004080B504287A
:100DD00006D80A46800003494018002100F0F2F8C6
:100DE00080BDC0461010004080B502460248002178
:100DF00000F0E8F880BDC046041000406E49096864
:100E0000C140012008407047B0B5114D2878A9783D
:100E1000081A28700024204600F0C6F8204600F08A
:100E2000A3F829780124204600F070F82046FFF747
:100E3000E5FF002805D107242046FFF7DFFF002843
:100E400002D02046FFF7B8FF012000F0ADF8B0BD9A
:100E500010000020B0B503682B490A46103A146808
:100E60000E25AC435B071B0FE3181360037914686E
:100E70008025AC43DB071B0EE318136082680B6808
:100E80004024A343D207520E9A180A60C2680B6826
:100E90002024A343D207920E9A180A6002690B68B5
:100EA0001024A343D207D20E9A180A6042690B6835
:100EB0000824A343D207120F9A180A6082690B68AC
:100EC0000424A343D207520F9A180A60C2690B6820
:100ED0000224A343D207920F9A180A60C269012A1A
:100EE0000AD122300378FF22D243CC691440E318A0
:100EF000CB611831407802E04031008C294A0B6800
:100F0000134003430B60B0BD14100040042828D8E0
:100F10007844007940008744020910171E001148E8
:100F20000268204B13405918016070470D48426811
:100F30001C4B13405918416070470A488268194B8E
:100F400013405918816070470648C268154B13401A
:100F50005918C160704703480269124B1340591871
:100F6000016170475010004070B504460C4D284692
:100F700008380621FFF798FE0A4E01280AD1002002
:100F800000F012F82868304020432860012000F06B
:100F90000BF870BD286830402043286070BDC04603
:100FA000081000400000FFFF80B5024602480621FD
:100FB00000F008F880BDC0460010004080B5C04673
:100FC000C04680BD01238B40012A02D1016819432C
:100FD00001E0016899430160704780B5C046C04692
:100FE00080BD0000B0B504460568002D16D0022D66
:100FF0000BD0012D11D11148016803220A43026070
:10100000016830220A43026005E0032080020B4998
:101010004A6802434A60002500E004252068012157
:1010200000F00EF8206800F0FFF8606800F0A8F803
:10103000A06800F0B5F82846B0BDC04610200040BA
:1010400070B5824A824B9360824B9360136A0C4660
:10105000022811D001281ED0002835D1481E844115
:1010600010680125A84300191060002000292CD029
:10107000D1680905FCD528E0481E8441A000146809
:101080000425AC4320181060002000291DD05169B0
:10109000C904FCD519E001200007156A0543156253
:1010A0000B48056806262E430660481E84416000F2
:1010B00014680225AC43201810600020002904D0D9
:1010C00011694906FCD500E00420136270BDC046DA
:1010D0000C0D024070B550490C884B888A88C8882E
:1010E0000D8C5A490E68B606B60F022E0AD0012E94
:1010F00010D0002E10D1CE683D4D2E40A64210D10A
:10110000154821E04869454A0240AA4206D001201C
:10111000C00319E00F4817E0002015E04B20400203
:1011200012E0CC682C409C4201D10C480CE0CB680A
:101130002B40934201D10A4806E0CA682A40824205
:1011400001D0094800E007480968C905490FC840AF
:1011500070BDC0460048E80100366E01408651016E
:101160000024F40000127A0000093D0080B5FFF76A
:10117000B1FF364909684905890FC84080BDC0469E
:101180003249334A8A60334A8A60072292010B68E7
:1011900093434007C00D1818086000207047C046F0
:1011A0002A492B4A8A602B4A8A60032252020B6822
:1011B00093438007400D1818086000207047C04610
:1011C00080B50A4601460248FFF7FCFE002080BDBC
:1011D0002020004040001049405A05490140054880
:1011E0000268054B13405918016000207047C04643
:1011F000FF0700000C20004000F8FFFF40000649F8
:10120000405A0649014006480268064B13405918E7
:10121000016000207047C046000C1000FF03000072
:101220001420004000FCFFFF80B50849084A8A608E
:10123000084A8A600A6830239A438007800E101893
:10124000086000F009F8002080BDC0460020004082
:101250005A5A0000A5A5000080B5FFF73BFFD94909
:10126000086080BD80B5FFF7F7FF80BD80B500F056
:1012700019F880BD80B5C046C04680BD80B5C04667
:10128000C04680BD80B5C046C04680BD80B5C04662
:10129000C04680BD80B5C046C04680BD80B5C04652
:1012A000C04680BD80B50020FFF72CFB02480178C6
:1012B000491C017080BDC046B800002080B5C04602
:1012C000C04680BD80B500F001F880BD10B5074C68
:1012D0000021204600F022F8012806D100212046F6
:1012E00000F006F8204600F02CF810BD0001004088
:1012F00010B5143000242246FFF764FE204610BDCE
:1013000080B5001D0122FFF75DFE002080BD80B585
:10131000001D0122FFF756FE002080BD80B5103071
:10132000FFF7C2FC80BD80B509888288C0239A433C
:101330008907090E891881800421FFF7E1FF002049
:1013400080BD00787047B0B5044601700546103581
:1013500001212846FFF7A8FC0028F9D001212046EA
:10136000FFF7C6FF0020B0BD10B50A7983880C4C8A
:101370001C40D207920D1219828008680222024393
:10138000032A09D18A680879401C5043C968490179
:10139000FEF7DEFF404200E0002080B210BDC046F4
:1013A000FFFD000080B5C046C04680BD80B5C04688
:1013B000C04680BD80B5C046C04680BD70B586B011
:1013C0006C4600202070201D1421FEF7BFFF402531
:1013D0000426284631462246FFF774FC012228469F
:1013E0003146FFF7B7FC06B070BD80B54020042140
:1013F0000122FFF7AFFC80BD80B540200421002210
:10140000FFF7A8FC80BD000080B5994840787A4974
:101410000978002904D0002806D0012806D106E06A
:10142000002804D0012801D1FFF7E6FF80BDFFF7B7
:10143000DCFF80BDF0B591B01C2001210191FFF7C8
:10144000BFFE0025022103912846FFF77BFC08AC74
:1014500024211F4E2046B04706A808210491B0471A
:1014600005AF04213846B0471020019E3146FFF7F2
:10147000A7FEFFF747F9FFF719FA204602942574F3
:101480000E2110910F9503240B9403990A9109944E
:101490000895FFF779F9300405903846FFF7ECF826
:1014A000FFF7D0F8FFF7E0F8FFF7D2F8FFF7D6F82C
:1014B000FFF72EF9182021463246FFF7E5FA0549D5
:1014C0000D71049808600298FFF7FAF811B0F0BDAA
:1014D000231500007800002080B51C200121FFF7B3
:1014E0006FFE00F00DFAFFF769FF80BD704780B511
:1014F00000F0F0F900F030FA80BD10B586B01C2085
:1015000001242146FFF75CFE00200590049003941F
:1015100002900194402005216A46FFF7D3FB06B0F4
:1015200010BD002806D0002904D000220270401C03
:10153000491EF8E770470000F8B504461F4E2048E2
:1015400070600027B760052030600B4D002C0DD077
:10155000641EB7601B4800682946FEF7F9FE18496B
:10156000081A401CB1688142FCD8EFE730680121BD
:1015700088433060F8BDC046A0860100F8B5044637
:101580000E4D0F4868600027AF60052028600D4EA3
:10159000002C0DD0641EAF607D20C1003068FEF7C6
:1015A000D7FE0749081A401CA9688142FCD8EFE71A
:1015B0002868012188432860F8BDC04610E000E09B
:1015C000FFFFFF0014000020CC488288B2498B88BE
:1015D0009A4208D283785B1C8370D8B2042808D35F
:1015E0003232012003E0002282700220034A4A8046
:1015F000704700207047C046BA000020A9070000CD
:1016000080B59A480078002813D0F648007836490B
:10161000097881420BD900F015FA95480021017034
:1016200091480170FFF7E1FE00F081F980BD00F004
:1016300001F880BD80B52C4801780120084096490A
:101640000978002904D0002807D0FFF7D5FE0BE069
:10165000002807D0FFF7D0FE01E0FFF7C6FE00F03C
:1016600066F980BDFFF7C1FE00F068F980BDC04695
:101670000000002010B580200521FFF71BFB00288B
:1016800011D018480024047078490978002927D01F
:101690004178002924D1144909780A46083A182AC1
:1016A00012D9002419E00F480178491C0170C8B212
:1016B000000900240F2813D36C48007800280FD1AC
:1016C000022000F091F90BE00A46143A0C2A01D2EC
:1016D000022402E01429E4D20124447000F0B2F99B
:1016E000204610BDA4000020B800002010B586B030
:1016F0001C2001242146FFF763FD00200590049083
:10170000039402900194802005216A46FFF7DAFADB
:1017100006B010BDF0B58BB002A801901821FFF7FC
:1017200000FF1C2001242146FFF74AFD00250495F7
:1017300003958026042730463946019AFFF7C2FAFE
:10174000304639463A46FFF7F5FA0E202146FFF7B4
:1017500037FD02A8057112490A788B789A1A0A7027
:10176000D1B20184099508940794069505950494CF
:101770000295FFF76FFB2046FFF71EFB15200321A4
:101780002246FFF781F920462146FFF71FFB20463E
:10179000FFF72AFB2046FFF707FC0BB0F0BDC04661
:1017A0001000002082B0FFF75FF8FFF795FE00F011
:1017B0007BF9FFF79BFFFFF73DFEFFF7ABFF00F064
:1017C0006DF8FFF79AFE01242046FFF7A7F90028DD
:1017D00002D0FFF78BFEF6E70194234D234E2E4FE8
:1017E000234CFFF784FEFFF745FF287802280CD032
:1017F00001281AD00028F4D100F03CF800F09EF83F
:10180000FFF702FE00F06EF8EBE73078002812D107
:10181000022000F0E9F80120387078784142414117
:101820007970F86800F0C4F9DBE72078002805D06B
:101830003178002906D0FFF7E3FED2E7FFF7C4FEB8
:101840002070CEE7022804D0012808D10420019C92
:1018500001E00024082000F0C7F83C70044C7988AF
:10186000B86800F0A5F9BCE7A5000020B900002089
:10187000C201002008484188204882888A4207D94E
:101880004178491C4170C9B2032904D9012101E002
:10189000002141700170704700000020F0B587B052
:1018A0001C2001242146FFF78BFC01AD002028708D
:1018B000281D1421FEF74AFD8026032730463946AD
:1018C0002A46FFF7FFF9304639462246FFF742FA2B
:1018D00007B0F0BD80B540200521FFF7EBF9411EB0
:1018E000884180BD80B505480078002802D000F00E
:1018F00033F880BD00F029F880BDC046BA00002052
:1019000070B586B06C4600202070201D1421FEF7B3
:101910001DFD80250626284631462246FFF7D2F9CE
:10192000012228463146FFF715FA06B070BD80B592
:10193000802006210122FFF70DFA80BD80B58020AE
:1019400006210022FFF706FA80BD80B58020032122
:101950000022FFF7FFF980BD80B58020032101221E
:10196000FFF7F8F980BD000070B586B005466846FF
:101970001821FFF7D6FD0024022D09D01749082DA4
:101980000AD0042D204625460BD10620102205E062
:10199000134D0720082202E0052020220D461149A0
:1019A0000A70012605960494029069462046FEF7C7
:1019B000FDFF2046FEF7A6FF2046FEF7E3FF0E20C0
:1019C00003213246FFF760F820462946FEF77AFFEA
:1019D00020462946FEF7AAFF06B070BDE448000085
:1019E00072A40000C1010020B0B504460E4D3221A2
:1019F0002846FEF7A9FC0DA128462246FEF7E6FB85
:101A00002846FEF763FC0146284600F0BDF8204654
:101A1000FFF7AAFF00242046FFF708F81848012125
:101A200041700470B0BDC046C100002074696D658E
:101A30005F73746172742020687A3D202564200AE7
:101A40000D000000B0B500242046FFF701F80C4D52
:101A50002C702046FEF782FF6C700A4D322128461A
:101A6000FEF772FC08A128462246FEF7AFFB284687
:101A7000FEF72CFC0146284600F086F8B0BDC046B3
:101A8000B8000020C100002074696D655F73746F39
:101A9000702069735F74696D65725F666C61672041
:101AA00025640A0D00000000F0B58DB003AF1821C9
:101AB0000091334A384690471C200124314A214680
:101AC0009047002001900490C02602253046294608
:101AD0003A46FFF7F7F8052230462946FFF72AF97C
:101AE00004940625304629463A46FFF7EBF830467F
:101AF00029462246FFF71EF909AD10212846204E3F
:101B0000B04703AF38460099B047082021461D4E24
:101B1000B04720462146B047019E2E714B20C001A0
:101B20000C900994FFF722FB0B9020482946FFF701
:101B30001BFC05460894079620463946FEF736FFFB
:101B400020462946FEF7BEFE20462946FEF7EEFE59
:101B50002046FEF76BFF029402A9144D2846FFF7BA
:101B6000E2FB28463146FFF7D2FB28463146FFF715
:101B7000BFFB072003212246FEF786FF0DB0F0BD14
:101B800023150000C1110000F8B500280BD00C4649
:101B900005460027054EA74205DAE95D3046FFF706
:101BA000D2FB7F1CF7E70020F8BDC04600010040D3
:101BB000B0B50C4605462846FEF7F2FF0028FAD1DC
:101BC00028462146FFF72AF8002807D103E02846D7
:101BD0002146FFF723F82888A042F8D1B0BD0000C5
:101BE00020000000170000001B000000504600000D
:101BF000E022020018000000F0000000E8030000EE
:101C0000201C00000000002018000000040100005B
:101C1000381C000018000020B00500002001000062
:101C20000101A907A9070000003F0000043F0000D0
:081C30000300001000093D0053
:04000005000000C136
:00000001FF
